:020000040800F2
:1000000000000824E11B0008111A0008131A000858
:10001000151A0008171A0008191A00080000000035
:100020000000000000000000000000001B1A000893
:100030001D1A0008000000001F1A0008211A0008FD
:10004000311C0008311C0008311C0008311C00085C
:10005000311C0008311C0008311C0008311C00084C
:10006000311C0008311C0008311C0008311C00083C
:10007000311C0008311C0008311C0008311C00082C
:10008000311C0008311C0008311C0008311C00081C
:10009000311C0008311C0008311C0008311C00080C
:1000A000311C0008311C0008311C0008311C0008FC
:1000B000311C0008311C0008311C0008311C0008EC
:1000C000311C0008311C0008311C0008311C0008DC
:1000D000311C0008311C0008311C0008311C0008CC
:1000E000311C0008311C000800000000311C000811
:1000F000311C0008311C0008311C0008311C0008AC
:10010000311C0008291A0008311C0008311C0008A5
:10011000311C0008311C0008311C0008311C00088B
:10012000311C0008311C0008311C0008311C00087B
:10013000311C0008311C0008311C0008311C00086B
:1001400000000000000000000000000000000000AF
:10015000311C0008311C0008311C0008311C00084B
:10016000311C0008311C0008311C0008311C00083B
:10017000311C0008311C0008311C0008311C00082B
:10018000311C0008311C0008311C0008311C00081B
:10019000311C0008311C0008311C0008311C00080B
:1001A000311C0008311C0008311C0008311C0008FB
:1001B000311C0008311C0008311C0008311C0008EB
:1001C000311C0008311C0008311C0008311C0008DB
:1001D000311C0008391A0008311C0008311C0008C5
:1001E000311C0008311C0008311C0008311C0008BB
:1001F000311C0008311C0008311C0008311C0008AB
:10020000311C0008311C0008311C0008311C00089A
:10021000311C0008311C0008311C0008311C00088A
:10022000311C0008311C0008491A000800000000B9
:10023000311C0008311C000800000000311C0008BF
:10024000311C0008311C0008311C0008311C00085A
:10025000311C0008311C0008311C0008311C00084A
:10026000311C0008311C0008311C0008311C00083A
:10027000311C0008311C0008311C0008000000007F
:10028000311C0008311C0008311C0008000000006F
:0802900000000000311C000811
:1002C00010B5054C237833B9044B13B10448AFF390
:1002D00000800123237010BDD80A00240000000014
:1002E000D05B010808B5034B1BB103490348AFF3CA
:1002F000008008BD00000000DC0A0024D05B01087B
:1003000053B94AB9002908BF00281CBF4FF0FF317C
:100310004FF0FF3000F074B9ADF1080C6DE904CE78
:1003200000F006F8DDF804E0DDE9022304B07047D0
:100330002DE9F047089D04468E46002B4DD18A4298
:10034000944669D9B2FA82F252B101FA02F3C2F1CB
:10035000200120FA01F10CFA02FC41EA030E94405C
:100360004FEA1C48210CBEFBF8F61FFA8CF708FB7D
:1003700016E341EA034306FB07F199420AD91CEB55
:10038000030306F1FF3080F01F81994240F21C8187
:10039000023E63445B1AA4B2B3FBF8F008FB1033CF
:1003A00044EA034400FB07F7A7420AD91CEB040404
:1003B00000F1FF3380F00A81A74240F207816444D4
:1003C000023840EA0640E41B00261DB1D440002359
:1003D000C5E900433146BDE8F0878B4209D9002DBD
:1003E00000F0EF800026C5E9000130463146BDE847
:1003F000F087B3FA83F6002E4AD18B4202D38242B1
:1004000000F2F980841A61EB030301209E46002D5F
:10041000E0D0C5E9004EDDE702B9FFDEB2FA82F2B4
:10042000002A40F09280A1EB0C014FEA1C471FFA12
:100430008CFE0126200CB1FBF7F307FB131140EAF9
:1004400001410EFB03F0884208D91CEB010103F1C6
:10045000FF3802D2884200F2CB804346091AA4B288
:10046000B1FBF7F007FB101144EA01440EFB00FE5C
:10047000A64508D91CEB040400F1FF3102D2A645C1
:1004800000F2BB800846A4EB0E0440EA03409CE760
:10049000C6F12007B34022FA07FC4CEA030C20FA0D
:1004A00007F401FA06F31C43F9404FEA1C4900FA2D
:1004B00006F3B1FBF9F8200C1FFA8CFE09FB1811AA
:1004C00040EA014108FB0EF0884202FA06F20BD91D
:1004D0001CEB010108F1FF3A80F08880884240F26D
:1004E0008580A8F102086144091AA4B2B1FBF9F0B1
:1004F00009FB101144EA014100FB0EFE8E4508D9AC
:100500001CEB010100F1FF346CD28E456AD9023830
:10051000614440EA0840A0FB0294A1EB0E01A14215
:10052000C846A64656D353D05DB1B3EB080261EB83
:100530000E0101FA07F722FA06F3F1401F43C5E95D
:10054000007100263146BDE8F087C2F12003D84093
:100550000CFA02FC21FA03F3914001434FEA1C47D5
:100560001FFA8CFEB3FBF7F007FB10360B0C43EAC7
:10057000064300FB0EF69E4204FA02F408D91CEB77
:10058000030300F1FF382FD29E422DD90238634475
:100590009B1B89B2B3FBF7F607FB163341EA034115
:1005A00006FB0EF38B4208D91CEB010106F1FF3864
:1005B00016D28B4214D9023E6144C91A46EA00465B
:1005C00038E72E46284605E70646E3E61846F8E6ED
:1005D0004B45A9D2B9EB020864EB0C0E0138A3E736
:1005E0004646EAE7204694E74046D1E7D0467BE717
:1005F000023B614432E7304609E76444023842E78F
:10060000704700BF00000000000000000000000074
:1006100000000000000000000000000000000000DA
:1006200000000000000000000000000000000000CA
:1006300000000000000000000000000000000000BA
:1006400090F800F06DE9024520F007016FF0000C12
:1006500010F0070491F820F040F049804FF00004BA
:100660006FF00700D1E9002391F840F000F1080095
:1006700082FA4CF2A4FA8CF283FA4CF3A2FA8CF3CD
:100680004BBBD1E9022382FA4CF200F10800A4FA34
:100690008CF283FA4CF3A2FA8CF3E3B9D1E9042388
:1006A00082FA4CF200F10800A4FA8CF283FA4CF3BF
:1006B000A2FA8CF37BB9D1E9062301F1200182FA79
:1006C0004CF200F10800A4FA8CF283FA4CF3A2FA7F
:1006D0008CF3002BC6D0002A04BF04301A4612BA8D
:1006E000B2FA82F2FDE8024500EBD2007047D1E990
:1006F000002304F00305C4F100004FEAC50514F01F
:10070000040F91F840F00CFA05F562EA05021CBFEF
:1007100063EA050362464FF00004A9E70000000009
:1007200001F0FF01102A2BDB10F0070F08D010F8A2
:10073000013B013A8B422DD010F0070F42B3F6D1A6
:10074000F0B441EA012141EA014122F007047FF0BF
:1007500000070023F0E80256083C85EA010586EA16
:10076000010685FA47F5A3FA87F586FA47F6A5FA52
:1007700087F68EB9EED1F0BC01F0FF0102F007025E
:1007800032B110F8013B013A83EA010313B1F8D109
:100790000020704701387047002D06BF35460338EA
:1007A000073815F0010F07D1013015F4807F02BF23
:1007B000013015F4C03F0130F0BC0138704700BF74
:1007C000844641EA000313F003036DD1403A41D35C
:1007D00051F8043B40F8043B51F8043B40F8043B1B
:1007E00051F8043B40F8043B51F8043B40F8043B0B
:1007F00051F8043B40F8043B51F8043B40F8043BFB
:1008000051F8043B40F8043B51F8043B40F8043BEA
:1008100051F8043B40F8043B51F8043B40F8043BDA
:1008200051F8043B40F8043B51F8043B40F8043BCA
:1008300051F8043B40F8043B51F8043B40F8043BBA
:1008400051F8043B40F8043B51F8043B40F8043BAA
:10085000403ABDD2303211D351F8043B40F8043B4A
:1008600051F8043B40F8043B51F8043B40F8043B8A
:1008700051F8043B40F8043B103AEDD20C3205D35A
:1008800051F8043B40F8043B043AF9D2043208D052
:10089000D2071CBF11F8013B00F8013B01D30B88C4
:1008A00003806046704700BF082A13D38B078DD0A2
:1008B00010F003038AD0C3F10403D21ADB071CBF74
:1008C00011F8013B00F8013B80D331F8023B20F8DE
:1008D000023B7BE7043AD9D3013A11F8013B00F817
:1008E000013BF9D20B7803704B7843708B7883709F
:1008F0006046704781F0004102E000BF83F0004392
:1009000030B54FEA41044FEA430594EA050F08BFAA
:1009100090EA020F1FBF54EA000C55EA020C7FEA6E
:10092000645C7FEA655C00F0E2804FEA5454D4EBEB
:100930005555B8BF6D420CDD2C4480EA020281EAB5
:10094000030382EA000083EA010180EA020281EAED
:100950000303362D88BF30BD11F0004F4FEA01313F
:100960004FF4801C4CEA113102D0404261EB41014E
:1009700013F0004F4FEA03334CEA133302D05242D4
:1009800063EB430394EA050F00F0A780A4F1010490
:10099000D5F1200E0DDB02FA0EFC22FA05F28018CA
:1009A00041F1000103FA0EF2801843FA05F35941B0
:1009B0000EE0A5F120050EF1200E012A03FA0EFC2F
:1009C00028BF4CF0020C43FA05F3C01851EBE37159
:1009D00001F0004507D54FF0000EDCF1000C7EEB76
:1009E00000006EEB0101B1F5801F1BD3B1F5001FB4
:1009F0000CD349085FEA30004FEA3C0C04F10104D3
:100A00004FEA445212F5800F80F09A80BCF1004FFB
:100A100008BF5FEA500C50F1000041EB045141EA7D
:100A2000050130BD5FEA4C0C404141EB0101013C46
:100A300028BFB1F5801FE9D291F0000F04BF014635
:100A40000020B1FA81F308BF2033A3F10B03B3F107
:100A500020020CDA0C3208DD02F1140CC2F10C0297
:100A600001FA0CF021FA02F10CE002F11402D8BFF5
:100A7000C2F1200C01FA02F120FA0CFCDCBF41EAC1
:100A80000C019040E41AA2BF01EB0451294330BD90
:100A90006FEA04041F3C1CDA0C340EDC04F114046D
:100AA000C4F1200220FA04F001FA02F340EA030044
:100AB00021FA04F345EA030130BDC4F10C04C4F18A
:100AC000200220FA02F001FA04F340EA030029466A
:100AD00030BD21FA04F0294630BD94F0000F83F4B4
:100AE000801306BF81F480110134013D4EE77FEA97
:100AF000645C18BF7FEA655C29D094EA050F08BFE3
:100B000090EA020F05D054EA000C04BF19461046C3
:100B100030BD91EA030F1EBF0021002030BD5FEA07
:100B2000545C05D14000494128BF41F0004130BD2F
:100B300014F580043CBF01F5801130BD01F0004583
:100B400045F0FE4141F470014FF0000030BD7FEAF6
:100B5000645C1ABF194610467FEA655C1CBF0B46F1
:100B6000024650EA013406BF52EA033591EA030F08
:100B700041F4002130BD00BF90F0000F04BF002100
:100B8000704730B54FF4806404F132044FF0000533
:100B90004FF0000150E700BF90F0000F04BF0021AC
:100BA000704730B54FF4806404F1320410F0004512
:100BB00048BF40424FF000013EE700BF42004FEA0D
:100BC000E2014FEA31014FEA02701FBF12F07F438A
:100BD00093F07F4F81F06051704732F07F4208BF41
:100BE000704793F07F4F04BF41F40021704730B548
:100BF0004FF4607401F0004521F000411CE700BF94
:100C000050EA010208BF704730B54FF000050AE016
:100C100050EA010208BF704730B511F0004502D517
:100C2000404261EB41014FF4806404F132045FEA19
:100C3000915C3FF4D8AE4FF003025FEADC0C18BFC2
:100C400003325FEADC0C18BF033202EBDC02C2F1B4
:100C5000200300FA03FC20FA02F001FA03FE40EA46
:100C60000E0021FA02F11444BDE600BF70B54FF04A
:100C7000FF0C4CF4E06C1CEA11541DBF1CEA135528
:100C800094EA0C0F95EA0C0F00F0DEF82C4481EA90
:100C9000030621EA4C5123EA4C5350EA013518BFB0
:100CA00052EA033541F4801143F4801338D0A0FB9D
:100CB00002CE4FF00005E1FB02E506F00042E0FB4A
:100CC00003E54FF00006E1FB03569CF0000F18BF50
:100CD0004EF0010EA4F1FF04B6F5007F64F54074F8
:100CE00004D25FEA4E0E6D4146EB060642EAC6218B
:100CF00041EA55514FEAC52040EA5E504FEACE2EF8
:100D0000B4F1FD0C88BFBCF5E06F1ED8BEF1004FFA
:100D100008BF5FEA500E50F1000041EB045170BD76
:100D200006F0004646EA010140EA020081EA0301BA
:100D3000B4EB5C04C2BFD4EB0C0541EA045170BDB6
:100D400041F480114FF0000E013C00F3AB8014F130
:100D5000360FDEBF002001F0004170BDC4F1000479
:100D6000203C35DA0C341BDC04F11404C4F12005FA
:100D700000FA05F320FA04F001FA05F240EA020055
:100D800001F0004221F0004110EBD37021FA04F68B
:100D900042EB06015EEA430E08BF20EAD37070BD45
:100DA000C4F10C04C4F1200500FA04F320FA05F0A4
:100DB00001FA04F240EA020001F0004110EBD370A6
:100DC00041F100015EEA430E08BF20EAD37070BD16
:100DD000C4F1200500FA05F24EEA020E20FA04F3EF
:100DE00001FA05F243EA020321FA04F001F000419E
:100DF00021FA04F220EA020000EBD3705EEA430E0F
:100E000008BF20EAD37070BD94F0000F0FD101F03D
:100E10000046400041EB010111F4801F08BF013C76
:100E2000F7D041EA060195F0000F18BF704703F0B4
:100E30000046520043EB030313F4801F08BF013D3B
:100E4000F7D043EA0603704794EA0C0F0CEA1355F7
:100E500018BF95EA0C0F0CD050EA410618BF52EAB1
:100E60004306D1D181EA030101F000414FF00000B7
:100E700070BD50EA410606BF1046194652EA4306C5
:100E800019D094EA0C0F02D150EA013613D195EA39
:100E90000C0F05D152EA03361CBF104619460AD181
:100EA00081EA030101F0004141F0FE4141F470018B
:100EB0004FF0000070BD41F0FE4141F4780170BD7B
:100EC00070B54FF0FF0C4CF4E06C1CEA11541DBFE0
:100ED0001CEA135594EA0C0F95EA0C0F00F0A7F8E2
:100EE000A4EB050481EA030E52EA03354FEA01310F
:100EF00000F088804FEA03334FF0805545EA131322
:100F000043EA12634FEA022245EA111545EA1065E9
:100F10004FEA00260EF000419D4208BF964244F180
:100F2000FD0404F5407402D25B084FEA3202B61A9F
:100F300065EB03055B084FEA32024FF480104FF473
:100F4000002CB6EB020E75EB030E22BFB61A7546E7
:100F500040EA0C005B084FEA3202B6EB020E75EB7A
:100F6000030E22BFB61A754640EA5C005B084FEAE2
:100F70003202B6EB020E75EB030E22BFB61A7546AF
:100F800040EA9C005B084FEA3202B6EB020E75EBBA
:100F9000030E22BFB61A754640EADC0055EA060E7B
:100FA00018D04FEA051545EA16754FEA06164FEABE
:100FB000C30343EA52734FEAC2025FEA1C1CC0D16A
:100FC00011F4801F0BD141EA00014FF000004FF0F7
:100FD000004CB6E711F4801F04BF01430020B4F1B8
:100FE000FD0C88BFBCF5E06F3FF6AFAEB5EB030C70
:100FF00004BFB6EB020C5FEA500C50F1000041EB6D
:10100000045170BD0EF0004E4EEA113114EB5C0439
:10101000C2BFD4EB0C0541EA045170BD41F480110C
:101020004FF0000E013C90E645EA060E8DE60CEA14
:10103000135594EA0C0F08BF95EA0C0F3FF43BAF31
:1010400094EA0C0F0AD150EA01347FF434AF95EAE8
:101050000C0F7FF425AF104619462CE795EA0C0FCC
:1010600006D152EA03353FF4FDAE1046194622E799
:1010700050EA410618BF52EA43067FF4C5AE50EA73
:1010800041047FF40DAF52EA43057FF4EBAE12E763
:101090004FF0FF3C06E000BF4FF0010C02E000BF44
:1010A0004FF0010C4DF804CD4FEA410C7FEA6C5C27
:1010B0004FEA430C18BF7FEA6C5C1BD001B050EACA
:1010C000410C0CBF52EA430C91EA030F02BF90EAB5
:1010D000020F0020704710F1000F91EA030F58BF74
:1010E000994208BF90422CBFD8176FEAE37040F0D6
:1010F000010070474FEA410C7FEA6C5C02D150EA74
:10110000013C07D14FEA430C7FEA6C5CD6D152EA2E
:10111000033CD3D05DF8040B704700BF84461046F3
:1011200062468C461946634600E000BF01B5FFF7F2
:10113000B7FF002848BF10F1000F01BD4DF808EDC2
:10114000FFF7F4FF0CBF012000205DF808FB00BF93
:101150004DF808EDFFF7EAFF34BF012000205DF8ED
:1011600008FB00BF4DF808EDFFF7E0FF94BF01203A
:1011700000205DF808FB00BF4DF808EDFFF7CEFF3B
:1011800094BF012000205DF808FB00BF4DF808ED7A
:10119000FFF7C4FF34BF012000205DF808FB00BF4B
:1011A0004FEA410C7FEA6C5C02D150EA013C0AD163
:1011B0004FEA430C7FEA6C5C02D152EA033C02D155
:1011C0004FF0000070474FF0010070474FEA4102B6
:1011D00012F5001215D211D56FF47873B3EB625289
:1011E00012D94FEAC12343F0004343EA505311F0B0
:1011F000004F23FA02F018BF404270474FF0000042
:10120000704750EA013005D111F0004008BF6FF07F
:10121000004070474FF00000704700BF054B064A82
:101220001A6000225A609A604FF48041D9601A61B6
:101230005A617047D00B002400700052F0B58DB099
:1012400000240794089409940A940B94384BD3F81B
:10125000E02042F01002C3F8E020D3F8E02002F0D2
:1012600010020192019AD3F8E02042F00402C3F880
:10127000E020D3F8E02002F004020292029AD3F8B0
:10128000E02042F08002C3F8E020D3F8E02002F032
:1012900080020392039AD3F8E02042F00102C3F8DF
:1012A000E020D3F8E02002F001020492049AD3F87F
:1012B000E02042F00202C3F8E020D3F8E02002F080
:1012C00002020592059AD3F8E02042F00802C3F822
:1012D000E020D3F8E03003F008030693069B154E98
:1012E00001220221304600F024FF082307930894CE
:1012F0000125099507A9104800F004FE07950894F8
:101300000227099707A9304600F0FCFD07970895CA
:1013100009940A9407A9304600F0F4FD20230793AE
:101320000894099507A9054800F0ECFD0DB0F0BD43
:1013300000440258000002580010025800080258E9
:1013400072B6FEE700B583B01E4BD3F8D42042F04E
:101350000102C3F8D420D3F8D43003F00103019381
:10136000019B1948194B03601D23436000238360D0
:10137000C36003610222426108228261C361036289
:101380004FF00072426201228262C36203634363D0
:10139000836300F039FF80B9002211460A4800F04B
:1013A00063FF60B9002204217A2000F0D7FC7A2084
:1013B00000F00AFD03B05DF804FBFFF7C1FFFFF783
:1013C000BFFF00BF00440258180B00244000005229
:1013D00008B50A480A4B0360FF234360012383607A
:1013E0000023C3600822026143618361C361036219
:1013F00001F054FF00B908BDFFF7A2FF840B0024E1
:101400000050005208B51548154B03604FF4E13306
:10141000436000238360C36003610C2242618361E7
:10142000C36103624362836205F05FFE70B900210D
:101430000A4805F0D2FE58B90021084805F0F2FE2E
:1014400040B9064805F0AAFE30B908BDFFF778FF9D
:10145000FFF776FFFFF774FFFFF772FF4C0C0024D5
:101460000010014008B50848084B036000230371D1
:101470004371436183610123036200F0C7FC00B93B
:1014800008BDFFF75DFF00BFF40A0024004C0258BE
:1014900000B59FB04C2200210BA80CF0A5FF202224
:1014A000002103A80CF0A0FF022001F099FE002308
:1014B00000933C4BDA6A22F00102DA62DB6A03F045
:1014C00001030093384B9A6942F440429A619B6948
:1014D00003F440430093009B334B9B6913F4005F7C
:1014E000FAD0324BD3F8F42042F00202C3F8F420D1
:1014F000D3F8F43003F002030193019B002302931D
:10150000294B9A6942F440429A619B6903F4404333
:101510000293244BDA6A42F00102DA62DB6A03F0DA
:1015200001030293029B204B9B6913F4005FFAD0E6
:1015300023230B934FF480330C9301230E9340220B
:101540000F92119302231493159305221692C02231
:1015500017921893199304231A9308231B930023BB
:101560001C931D930BA801F0EDFEB0B93F2303932C
:101570000323049300230593082306934023079332
:1015800008934FF4806209920A93042103A802F0A1
:101590002DFB20B91FB05DF804FBFFF7D1FEFFF76C
:1015A000CFFE00BF00040058004802580044025813
:1015B00070B590B000F066FBFFF76AFFFFF73EFEE4
:1015C000FFF7C0FEFFF704FF06F0E0FFFFF71AFF8A
:1015D000FFF724FEFFF746FF0CF054F92F4B1B6872
:1015E000002098472E4C0AA9204604F042FC01A98D
:1015F000204604F08FFE079B089CA3FB04459DF842
:10160000281028480CF0E2FB029927480CF0DEFB7A
:10161000039926480CF0DAFB049925480CF0D6FB18
:10162000059924480CF0D2FB069923480CF0CEFB18
:10163000079922480CF0CAFB089921480CF0C6FB18
:10164000210D41EA05311F480CF0C0FB1E4C002261
:1016500021461E480BF0BEF91D4E1E4D1E4A314656
:10166000284606F0A3FF3146284606F0E9FF1B494D
:10167000204607F025F81A491A4807F021F82046B5
:1016800007F04CF8184807F049F80221174800F015
:1016900056FD4FF47A7000F035FBF6E75C60010808
:1016A000D00B0024E85B0108045C0108205C010801
:1016B0003C5C0108585C0108745C0108905C0108FE
:1016C000AC5C0108C85C0108E45C0108B8140024A3
:1016D000045D0108105D0108E85C0108145D010863
:1016E000205D01082C5D01083C5D010800000258E6
:1016F00082B0074BD3F8F42042F00202C3F8F42082
:10170000D3F8F43003F002030193019B02B0704759
:101710000044025802680A4B9A4200D0704782B0D7
:10172000A3F50063D3F8E02042F40022C3F8E020E0
:10173000D3F8E03003F400230193019B02B070471B
:10174000004C0258F0B5BBB00446002135913691EB
:10175000379138913991C02204A80CF045FE2268D7
:10176000384B9A4201D03BB0F0BD4FF000720023DD
:10177000CDE9042304A802F0D5FC00285ED1324B49
:10178000D3F8D42042F48042C3F8D420D3F8D42034
:1017900002F480420092009AD3F8E02042F0100256
:1017A000C3F8E020D3F8E02002F010020192019A81
:1017B000D3F8E02042F00202C3F8E020D3F8E020A2
:1017C00002F002020292029AD3F8E02042F00802EC
:1017D000C3F8E020D3F8E03003F008030393039B41
:1017E0000427359702253695002437943894092626
:1017F000399635A9154800F085FB3597369537940D
:1018000038943996124F35A9384600F07BFB4FF4D7
:1018100060533593369537943894399635A90D48E9
:1018200000F070FB402335933695379438940A23A3
:10183000399335A9384600F065FB94E7FFF780FD42
:101840009DE700BF005000520044025800100258AB
:1018500000040258000C02582DE9F043BBB00446C6
:10186000002135913691379138913991C02204A8E1
:101870000CF0BAFD22683B4B9A4202D03BB0BDE867
:10188000F0834FF480320023CDE904231023069324
:10189000812307930223089309930A934FF480331B
:1018A000189304A802F03EFC002857D12E4BD3F821
:1018B000D42042F48032C3F8D420D3F8D42002F4E8
:1018C00080320192019AD3F8E02042F00402C3F87A
:1018D000E020D3F8E02002F004020292029AD3F84A
:1018E000E02042F00802C3F8E020D3F8E03003F033
:1018F00008030393039B4FF48853359302263696CF
:101900004FF00108CDF8DC80032538950C2439947C
:10191000DFF85C9035A9484600F0F4FA4FF46063B4
:1019200035933696002737973895399435A9484628
:1019300000F0E8FA042335933696CDF8DC8038952C
:10194000399435A9094800F0DDFA3A4605213120DD
:1019500000F004FA312000F037FA8FE7FFF7F0FCCF
:10196000A4E700BF0070005200440258000C025867
:101970000008025810B5B8B00446002133913491E4
:10198000359136913791C02202A80CF02DFD2268C6
:101990001C4B9A4201D038B010BD01220023CDE982
:1019A00002231823219302A802F0BCFB38BB164B7C
:1019B000D3F8F02042F01002C3F8F020D3F8F02062
:1019C00002F010020092009AD3F8E02042F00202E6
:1019D000C3F8E020D3F8E03003F002030193019B49
:1019E0004FF44043339302233493002335933693CB
:1019F0000423379333A9054800F084FACBE7FFF7B7
:101A00009FFCD4E700100140004402580004025833
:101A1000FEE7FEE7FEE7FEE7FEE770477047704728
:101A200008B500F05DF908BD08B5024804F0A2FD54
:101A300008BD00BFD00B002408B5024801F072F8C1
:101A400008BD00BF141C002408B5024800F040FC8B
:101A500008BD00BF180B00240120704708B50CF02A
:101A6000D9F9162303604FF0FF3008BD08B54FF0D9
:101A7000FF31FFF7F3FFFEE770B50C461646002571
:101A800006E0AFF30080214601F8010B01350C465A
:101A9000B542F6DB304670BD70B50C4616460025E3
:101AA00004E014F8010BAFF300800135B542F8DB18
:101AB000304670BD4FF0FF3070474FF400534B601D
:101AC00000207047012070470020704710B5034682
:101AD0000C4A0D490D48006840B10C4800680344A9
:101AE000521A934206D8094A136010BD0748084CA1
:101AF0000460F2E70CF08EF90C2303604FF0FF3026
:101B0000F3E700BF0000082400400000E00C0024C0
:101B1000E0230024274AD2F8883043F47003C2F847
:101B20008830254B1B6803F00F03062B06D8224A8A
:101B3000136823F00F0343F0070313601F4B1A6869
:101B400042F001021A6000221A6119681C4A0A4018
:101B50001A60194B1B6813F0080F06D0164A136859
:101B600023F00F0343F007031360144B00229A6124
:101B7000DA611A62134999621349D96213491963E8
:101B80005A639963DA6319645A64196821F48021ED
:101B900019601A660E4B1A680E4B1340B3F1005FC2
:101BA00003D20D4B0122C3F808210C4B43F2D202A1
:101BB0001A60704700ED00E0002000520044025817
:101BC0007FEDF6EA000202020000FF01800201013F
:101BD0000010005C0000FFFF008000510040005238
:101BE000DFF834D0FFF796FF0C480D490D4A00236B
:101BF00002E0D458C4500433C4188C42F9D30A4AC2
:101C00000A4C002301E013600432A242FBD30CF023
:101C100007F9FFF7CDFC70470000082400000024FE
:101C2000D80A00249C690108D80A0024E023002473
:101C3000FEE70000104B1B780BB90120704710B570
:101C400004464FF47A70B0FBF3F30C4A1068B0FB13
:101C5000F3F000F0C7F868B90F2C01D901200AE0B1
:101C6000002221464FF0FF3000F078F8044B1C6052
:101C7000002000E0012010BD080000240000002426
:101C80000C00002410B5032000F056F801F0B4FE5B
:101C90000F498B69C3F303230E4AD35C03F01F0380
:101CA000D8408B6903F00F03D35C03F01F0320FAC5
:101CB00003F3094A1360094B18600F20FFF7BAFFBE
:101CC00010B10124204610BD0446FFF711FDF9E7CD
:101CD00000440258485D010804000024000000246C
:101CE000034B1B78034A11680B441360704700BF15
:101CF00008000024E40C0024014B1868704700BF62
:101D0000E40C002438B50446FFF7F6FF0546B4F1AD
:101D1000FF3F02D0044B1B781C44FFF7EDFF401B34
:101D2000A042FAD338BD00BF08000024014B186858
:101D3000000C70470010005C0649CB6823F4E06398
:101D40001B041B0C000200F4E0600343024A1A4328
:101D5000CA60704700ED00E00000FA0500B5174BBF
:101D6000DB68C3F30223C3F1070CBCF1040F28BFE7
:101D70004FF0040C03F1040EBEF1060F14D9033B1F
:101D80004FF0FF3E0EFA0CFC21EA0C0199400EFACE
:101D900003F322EA03031943002807DB0901C9B250
:101DA000074B19545DF804FB0023E9E700F00F002E
:101DB0000901C9B2034B1954F4E700BF00ED00E07C
:101DC00000E400E014ED00E0002807DB00F01F0253
:101DD000400901239340024A42F82030704700BF77
:101DE00000E100E00138B0F1807F0BD24FF0E0233A
:101DF0005861054AF02182F82310002098610722DB
:101E00001A6170470120704700ED00E0002838D0CB
:101E100010B50446437F1BB30223637723791BBBB2
:101E20002368194A5A612268936823F01803936063
:101E3000637913BB23684FF0FF321A6122689368FD
:101E400023F0600361690B4393602268936823F079
:101E50008003A1690B43936001236377002010BDC9
:101E60000377FFF757FCD7E7E268A168204600F048
:101E70000DF80028DCD00120F1E7236822691A61FF
:101E8000DCE70120704700BFB71DC10411F0010F4E
:101E900030D010B41F231C46013B34B103F01F0C9B
:101EA00021FA0CFC1CF0010FF5D0182A24D8DFE829
:101EB00002F00F232323232323231D232323232360
:101EC000232319232323232323230D00062B17D891
:101ED0000368596101688B6823F018031A438A600C
:101EE00000200AE0072BF3D9012006E00F2BEFD9E1
:101EF000012002E00120704701205DF8044B70478B
:101F00000120FAE7F0B583B000236BE085685E003E
:101F10000324B44025EA0405CC68B4402C43846013
:101F2000446824EA0C0C4C68C4F300149C4044EA56
:101F30000C04446068E0DD08083550F8256003F0C3
:101F400007044FEA840C0F2404FA0CF426EA040E6A
:101F50000C6904FA0CF444EA0E0440F825406BE0E6
:101F6000092400E0002404FA0EF42C430CF1020CC6
:101F7000694D45F82C404FF0B0442568D44325EA1C
:101F800002064F6817F4801F01D042EA05064FF0A1
:101F9000B0452E606D6804EA05064F6817F4001F0F
:101FA00001D042EA05064FF0B0456E60D5F8845086
:101FB00004EA05064F6817F4003F01D042EA05061F
:101FC0004FF0B045C5F88460D5F880502C404E687D
:101FD00016F4803F01D042EA05044FF0B042C2F847
:101FE000804001330A6832FA03F400F092804FF027
:101FF000010C0CFA03FC1CEA0202F2D04C6804F05B
:102000000304013C012C81D94C6804F00304032C27
:102010000CD0C4685D004FF0030C0CFA05FC24EAF8
:102020000C0C8C68AC4044EA0C04C4604C6804F0AE
:102030000304022C3FF47FAF04684FEA430E4FF0D5
:10204000030C0CFA0EFC24EA0C0C4C6804F003049C
:1020500004FA0EF444EA0C0404604C6814F4403FA3
:10206000BFD02E4CD4F8F45045F00205C4F8F4501B
:10207000D4F8F44004F002040194019C4FEA930C5C
:102080000CF10205244C54F8255003F003044FEAE8
:10209000840E0F2404FA0EF425EA0405204CA04215
:1020A0003FF460AF04F58064A04222D004F5806460
:1020B000A04220D004F58064A0421ED004F58064C4
:1020C000A0421CD004F58064A0421AD004F58064BC
:1020D000A04218D004F58064A04216D004F58064B4
:1020E000A04214D004F58064A0423FF439AF0A2422
:1020F00039E7012437E7022435E7032433E70424D2
:1021000031E705242FE706242DE707242BE70824D1
:1021100029E703B0F0BD00BF000400580044025896
:10212000000002580369194201D0012070470020C5
:1021300070470AB181617047090481617047436942
:1021400001EA030221EA030141EA02418161704789
:10215000C368016902680B43D36043698269134312
:10216000C2691343026A1343426A1343C26A1343A8
:10217000026B1343826A013A43EA82438168026830
:102180000B4313614368B3F1804F1BD003680022F7
:102190005A61436B93421BDB02689BB21362836BF1
:1021A000002B20DB01680A6A42EA03430B624368A2
:1021B000B3F1804F24D00268DBB29362036800223F
:1021C0005A6270470268136943F040431361DDE7C8
:1021D0000268536943F480235361436B5B42026896
:1021E0009BB21362DBE70268536943F40023536137
:1021F000836B5A4201680B6A43EA02430B62D6E7DB
:10220000036800229A62D9E738B50446FFF774FDE7
:1022100044B30546002384F83C30022384F83D3063
:102220002268D36823F00103D3602368DB6813F0CE
:10223000010F0BD0FFF760FD431B052BF5D94023A1
:10224000A366032384F83D3001200AE02046FFF70F
:102250007FFF0020E06520666066A066012384F8A9
:102260003D3038BD0120FCE768B3034690F83C00E0
:1022700001282AD0012083F83C0093F83D00C0B229
:10228000012804D00120002283F83C20704730B49C
:102290001C68256915F0804F09D1216318684263D5
:1022A00051B919680A6922F000420A61002000222F
:1022B00083F83C2030BC704719680A6942F000423C
:1022C0000A610020F3E701207047022070470000F8
:1022D00030B583B000230193674B1D68674BA3FBA8
:1022E00005350168664B0B44C3F38413012202FADF
:1022F00003F34FF0A44212681A4200F0A58004468E
:10230000AD0A0B6813F0010F2FD0CB6813F0020F4A
:102310002BD0CB6823F00203CB600268936813F0E4
:10232000800F40F09380816E41F00101816613F4CB
:10233000007F03D0A16E41F00401A16613F4807FF9
:1023400003D0A16E41F00801A16613F4806F03D0A1
:10235000A16E41F01001A16613F4006F03D0A36ECB
:1023600043F02003A3660123536023681A6812F028
:10237000100F09D0DA6812F0200F05D010225A6031
:10238000A36C0BB12046984723681A6812F0080F17
:1023900009D0DA6812F0100F05D008225A60E36CF9
:1023A0000BB12046984723681A6812F0040F09D031
:1023B000DA6812F0080F05D004225A60236D0BB1C1
:1023C0002046984723681A6812F0020F19D0DA687D
:1023D00012F0040F15D0DA6822F03E02DA6094F8A9
:1023E0003D30DBB2042B36D0236802225A60002332
:1023F00084F83C30012384F83D30636C0BB12046F7
:102400009847A36E03B3042384F83D302268D36851
:1024100023F00103D360019B01330193AB4204D845
:102420002368DB6813F0010FF5D1002384F83C30FA
:102430002368DB6813F0010F19D0032384F83D30C3
:10244000636D0BB12046984703B030BD816E41F0FB
:10245000020181666BE7002384F83C30012384F895
:102460003D30A36D002BEFD020469847ECE70123C9
:1024700084F83D30E4E700BF00000024B5814E1B26
:10248000C0FFFFAD2DE9F04383B0D0F8008001EB31
:10249000C10300EB83031A6DDB6C9A4254D80746E4
:1024A0000C469B1A01EBC10200EB8202526C9A426D
:1024B00000D31A4602F103094FEA990915E006F123
:1024C00003094FEA990904EBC40507EB8505A96CDC
:1024D0003B7B0093B3B2E2B2404605F0CAFDAB6C61
:1024E0003344AB642B6D33442B6508EB441303F585
:1024F00010639B699BB24B4512D304EBC40207EBFC
:102500008202116DD36C99420AD24BB15B1A04EB73
:10251000C40207EB8202566C9E42D0D31E46CEE721
:1025200004EBC40007EB8007FA6C3B6D9A420FD8AE
:1025300004F00F040123A340D8F8344824EA03042C
:10254000C8F83448002000E0012003B0BDE8F08363
:102550000020FAE770B58AB0002800F097800546A1
:10256000046890F8BD343BB3032385F8BD34E36BB6
:1025700013F4807F01D10023EB60286805F02CFB69
:102580002C4654F8106BEC460FCCACE80F000FCC87
:10259000ACE80F0094E803008CE803002B1D0ECB81
:1025A000304605F053FA044658B1022385F8BD348D
:1025B000012420460AB070BD80F8BC340BF08AFAC2
:1025C000D2E70021286805F06FFF234616E003EBF1
:1025D000C30205EB8202012182F83D1082F83C30F3
:1025E000A2F85630002182F840105164916403EB48
:1025F000C30205EB8202D1640133DBB269688B420E
:10260000E5D316E004EBC40305EB8303002283F853
:102610007D2283F87C4283F88022C3F88422C3F8A9
:10262000882204EBC40305EB8303C3F88C22013436
:10263000E4B2A142E6D82C4654F8106BEC460FCC1D
:10264000ACE80F000FCCACE80F0094E803008CE876
:1026500003002B1D0ECB304605F01AFB044660B973
:10266000002385F83830012385F8BD346B6A012BCF
:1026700008D0286805F0D5FE9BE7022385F8BD3415
:10268000012496E7284600F095FDF2E7012490E743
:10269000036890F8BC24012A1AD010B50446012220
:1026A00080F8BC24DA6B12F4807F02D1826A012A9E
:1026B00009D0206805F08AFA206805F0A4FE002001
:1026C00084F8BC0410BD9A6B42F480329A63F0E740
:1026D0000220704770B504460D460068066C00EB9A
:1026E000411303F530639A68E168012911D0384934
:1026F0008E4256D03DB905EBC50304EB8303D3F8F6
:102700008C32002B5ED0E9B220460BF045FA002057
:1027100070BD12F0080F09D02E498E42F7D912F47D
:10272000004FF4D04FF400429A60F0E712F0200F0F
:1027300002D020229A60EAE712F0280FE7D125495B
:102740008E4206D912F4004F03D04FF400429A6033
:10275000DDE705EBC50204EB8202D2F89C121B698F
:10276000C3F31203CB1AC2F890327DB905EBC50250
:1027700004EB8202D2F88C226AB105EBC50204EBAD
:102780008202D2F888120B44C2F88832E9B220469D
:102790000BF002FABBE704F2C442012105F0C6FEC9
:1027A000F4E712F4004F03D04FF400429A60AEE712
:1027B00012F0200F01D020229A60E9B220460BF0DF
:1027C000EBF9A4E704F2C442002105F0AFFE9AE75A
:1027D0000A31544F0A30544F38B5044603681D6C13
:1027E00003EB4113D3F8081B0E4A954207D903F5B2
:1027F000306311F4004F02D04FF400429A6020463B
:102800000BF0C2F9074B9D4202D9E368012B01D0BE
:10281000002038BD04F2C4420121206805F086FE84
:10282000F6E700BF0A30544F90F8BC34012B0DD0AE
:1028300010B50446012380F8BC3480F838100068D5
:1028400005F0D1FD002084F8BC0410BD02207047C3
:1028500038B505468C4611F0800F29D101F00F0ED6
:102860000EEBCE04A40004F51E740444211D0EEBEF
:10287000CE0E00EB8E0E00208EF87D020CF00F0CB9
:1028800081F800C08A600B714A780AB1A1F81AC0B9
:10289000022B1DD095F8BC34012B1CD0012385F8E8
:1028A000BC34286805F0C8FA002085F8BC0438BD9F
:1028B00001F00F0000EBC0018900383129440431D8
:1028C00000EBC00005EB8000012480F83D40D5E717
:1028D00000234B71DEE70220E9E710B504460A4603
:1028E00011F0800F20D101F00F0000EBC0039B001E
:1028F00003F51E732344191D00EBC00004EB800098
:10290000002380F87D3202F00F020A7094F8BC3484
:10291000012B19D0012384F8BC34206805F0DAFAC1
:10292000002084F8BC0410BD01F00F0000EBC003D0
:102930009B0038332344191D00EBC00004EB8000DA
:10294000012380F83D30DEE70220ECE708B501F016
:102950000F0C0CEBCC01890001F51E710144043110
:102960000CEBCC0E00EB8E0ECEF88822CEF88C321B
:102970000023CEF890328EF87D328EF87CC2C36888
:10298000012B05D0DAB2006805F08AFB002008BDF3
:10299000CEF89822F6E701F00F0101EBC10100EB40
:1029A0008101D1F89002704708B501F00F0C0CEBD3
:1029B000CC0189003831014404310CEBCC0E00EB22
:1029C0008E0ECEF84820CEF84C300023CEF8503092
:1029D00001238EF83D308EF83CC0C368012B05D032
:1029E000DAB2006805F05CFB002008BDCEF8582084
:1029F000F6E738B501F00F054268954239D804462C
:102A00000B4611F0800F1FD101EBC101890001F5C8
:102A10001E710144043103EBC30300EB8303002266
:102A200083F87D2201238B700D7094F8BC34012B48
:102A300021D0012384F8BC34206805F079FC8DB1E5
:102A4000002084F8BC0438BD05EBC501890038318D
:102A50000144043105EBC50300EB8303012283F835
:102A60003D20DFE704F2C442217B206805F05EFDD3
:102A7000E6E70120E7E70220E5E701F00F034268FF
:102A8000934231D810B5044611F0800F1ED103EBEC
:102A9000C301890001F51E710144043103EBC30237
:102AA00000EB8202002082F87D0200228A700B7007
:102AB00094F8BC34012B19D0012384F8BC3420686D
:102AC00005F063FC002084F8BC0410BD03EBC301D7
:102AD000890038310144043103EBC30200EB820268
:102AE000012082F83D00E0E7012070470220ECE77A
:102AF00008B511F0800F0CD101F00F0101EBC101FD
:102B0000890001F51E7101440431006805F052FA94
:102B100008BD01F00F0101EBC1018900383101440A
:102B20000431F2E72DE9F04F83B0044605682846EA
:102B300005F0B6FC10B103B0BDE8F08F0646206882
:102B400005F07DFC0028F6D005F50067BB68C3F3EF
:102B50000D23C4F8FC34206805F071FC10F0020F5E
:102B600004D02268536903F002035361206805F022
:102B700066FC10F0100F14D02268936923F0100344
:102B80009361D5F8208008F00F09C8F34343022B66
:102B900069D0062B00F08D802268936943F0100302
:102BA0009361206805F04BFC10F4002F40F09380F7
:102BB000206805F044FC10F4802F40F0FC80206871
:102BC00005F03DFC0028C0F27F81206805F037FC4D
:102BD00010F4006F09D0BB6813F0010F40F08C8136
:102BE0002268536903F400635361206805F027FCF1
:102BF00010F0006F15D02268536903F00063536131
:102C000094F8F434002B40F07B81012184F8F41413
:102C100023685B6DC3F38303C4F8F834204600F0E7
:102C2000DDFA206805F00BFC10F4805F40F06C8149
:102C3000206805F004FC10F4005F40F0B8812068C3
:102C400005F0FDFB10F0080F40F0C981206805F089
:102C5000F6FB10F0800F00F0DC81AB6923F08003FD
:102C6000AB610126C5E147F6F07318EA030F93D074
:102C70004FEA181B4FEAC903019309EBC90A04EB99
:102C80008A0AC8F30A12DAF88812284605F026FBE9
:102C9000CBF30A0BDAF888325B44CAF88832019B1E
:102CA0004B4404EB8303D3F890325B44CAF8903270
:102CB00072E7082204F2C441284605F00FFBC8F36E
:102CC0000A1809EBC90204EB8202D2F8903243449D
:102CD000C2F8903260E7206805F0B5FB8046B14647
:102CE00035E005EB49130122C3F8082B494620467D
:102CF000FFF7F0FC3CE005EB49130822C3F8082B72
:102D000049462046FFF768FD35E009EBC90304EBAF
:102D1000830393F87F32012B41D005EB4913022244
:102D2000C3F8082B1AF0200F04D005EB491320221A
:102D3000C3F8082B1AF4005F05D005EB49134FF4D4
:102D40000052C3F8082B09F101094FEA5808B8F1FD
:102D5000000F3FF42DAF18F0010FF4D05FFA89FB9C
:102D60005946206805F07FFB824610F0010FB8D16C
:102D70001AF0080FBFD11AF0100F04D005EB491359
:102D80001022C3F8082B1AF0020FCBD06B6913F096
:102D9000800FBAD07B6843F480637B60B5E709EBB2
:102DA000C90304EB8303002283F87F22594620469F
:102DB0000AF044FFB1E7206805F04DFB8046B146BC
:102DC00025E0594620460AF0F3FE1AF0080F04D019
:102DD00005EB49130822C3F808291AF0100F04D094
:102DE00005EB49131022C3F808291AF0400F04D04C
:102DF00005EB49134022C3F808291AF0020F40D10D
:102E00001AF0800F5BD109F101094FEA5808B8F1B7
:102E1000000F3FF4D4AE18F0010FF4D05FFA89FB35
:102E20005946206805F028FB824610F0010FCCD0EF
:102E300009F00F03012101FA03F27B6B23EA02037D
:102E40007B6305EB4913C3F80819E3688B42B8D1DB
:102E500009EBC90304EB8303596C9A6C0A449A6426
:102E6000B9F1000FADD109EBC90304EB8303DB6CAF
:102E7000002BA6D104F2C4420121206805F056FBC4
:102E80009FE74946284604F0ADFE09EBC90304EB71
:102E9000830393F83F30012B05D005EB4913022241
:102EA000C3F80829ACE709EBC90304EB830300224C
:102EB00083F83F20594620460AF0C6FEEDE7494612
:102EC0002046FFF7DFFA9EE77B6823F001037B6073
:102ED00094F8F434012B08D020460AF0A9FE2268A9
:102EE000536903F0004353616FE6002184F8F41442
:102EF000204600F073F9F2E720460AF081FE6FE603
:102F000020460AF07DFE8CE67B6823F001037B609F
:102F10001021206804F066FE1AE005EB46134FF618
:102F20007F31C3F80819D3F8002922F40012C3F83E
:102F30000029C3F8081BD3F8002B22F40012C3F8B1
:102F4000002BD3F8002B42F00062C3F8002B0136AF
:102F50006368B342E1D8FB6943F00113FB61236B63
:102F6000DBB1D7F8843043F00B03C7F884307B6CB7
:102F700043F00B037B64D5F8003823F4FE63C5F8F7
:102F8000003804F2C442217B206805F0CFFA2268A1
:102F9000536903F4805353614AE67A6942F22B0382
:102FA00013437B613B6943F00B033B61E3E720681C
:102FB00005F0ACFA206804F02FFF2061266800F0CD
:102FC0005FFF0146227C304604F08EFD20460AF069
:102FD00000FE2268536903F4005353612FE6204634
:102FE0000AF0F1FD2268536903F0080353612DE6EE
:102FF00001366368B3420CD906EBC60304EB8303C6
:1030000093F87F32012BF3D1F1B22046FFF770FD28
:10301000EEE7206805F013FA10F4801F27D120682E
:1030200005F00DFA10F4001F5BD0012328E00136F3
:103030006368B3421DD905EB4613D3F8002906EBAC
:10304000C60304EB830393F84030012BEFD1002A31
:10305000EDDA06EBC60304EB8303012283F83F207D
:1030600066F07F01C9B22046FFF742FDDFE7012687
:10307000DEE72268536903F480135361CFE701331D
:1030800062689A4228D905EB4312D2F8001B03EB81
:10309000C30204EB820292F88022012AEFD10029B8
:1030A000EDDA01F48031D4F8FC2402F001029142FF
:1030B000E5D103EBC30204EB8202012182F87F1207
:1030C000AA6942F08002AA616A6912F0800FD6D123
:1030D0007B6843F400737B602268536903F4001338
:1030E0005361206805F0ABF910F0804F10D12068D3
:1030F00005F0A5F910F0040F3FF41DAD23685D68DD
:1031000015F0040F0DD1226853682B43536012E56C
:1031100020460AF09FFD2268536903F08043536103
:10312000E5E720460AF09CFDEDE790F8BC34012B62
:1031300014D010B50446012380F8BC3411F0800F80
:1031400006D1006804F076FD002084F8BC0410BDB0
:1031500001F00F01006804F045FDF5E7022070471B
:1031600010B40468606A31B940EA0240A0620020ED
:103170005DF8044B70478C46A36A00EB13400023B4
:1031800008E003F1400104EB8101496800EB1140C4
:103190000133DBB20CF1FF318B42F2D340EA024043
:1031A0000CF13F0104EB81014860E0E703685962DC
:1031B00000207047034602680121C0F80015002076
:1031C00083F8F404936943F000639361516D024BFB
:1031D0000B435365704700BF0300001070470000A9
:1031E000134BDB6813F0040F07D1114BDB6803F0BE
:1031F000070383421AD00120704710B50C4AD368E8
:1032000023F007031843D060FEF776FD0446084B11
:103210005B6813F4005F07D1FEF76EFD001BB0F58D
:103220007A7FF4D9012000E0002010BD0020704713
:1032300000480258024AD36843F08073D360704755
:10324000004802582DE9F84305460F4616469946B0
:10325000DDF820802C68A4683C4214BF4FF0010CBC
:103260004FF0000CB44514D0B8F1FF3FF2D0FEF798
:1032700043FDA0EB0900404502D8B8F1000FE9D1A9
:10328000042385F841306B6C43F001036B6401202B
:1032900000E00020BDE8F8838164704770B582B01B
:1032A0000446FEF729FD002C45D0064694F841302F
:1032B000002B37D025682A6822F4F852A16801391A
:1032C00042EA01222A60A36C0093334600222021A7
:1032D0002046FFF7B7FF18BB21680B68174A1A4052
:1032E0006568E36843EA0563E5692B43256A2B4378
:1032F00013430B6021684A68114B134025696269CA
:1033000042EA0542A5692A4313434B6022681368C9
:1033100043F00103136000236364012384F8413008
:1033200002B070BD2046FEF70DFA41F2883120460A
:10333000FFF7B2FFBEE70120F2E700BF2FFFFF005B
:10334000FEF8E0FF002800F0398338B50446036832
:1033500013F0010F25D0944A136903F03803926AE1
:10336000102B15D0182B0FD06368B3F5803F3FD0DA
:10337000002B53D18C4B1A6822F480321A601A68E1
:1033800022F480221A6038E002F00302022AEBD114
:10339000854B1B6813F4003F03D06368002B00F0DB
:1033A0000F83236813F0020F00F0A1807E4A136997
:1033B000926A13F038035AD0182B55D0E368002BCB
:1033C00000F0DE8078490A6822F0190213430B608E
:1033D000FEF792FC0546744B1B6813F0040F40F097
:1033E000AD80FEF789FC401B0228F4D90320EEE2F1
:1033F0006D4A136843F48033136063682BB3FEF7A0
:103400007BFC0546684B1B6813F4003FC9D1FEF7EF
:1034100073FC401B6428F5D90320D8E2B3F5A02F34
:1034200009D0614B1A6822F480321A601A6822F4BB
:1034300080221A60E1E75C4B1A6842F480221A602D
:103440001A6842F480321A60D7E7FEF755FC054649
:10345000554B1B6813F4003FA3D0FEF74DFC401BF7
:103460006428F5D90320B2E212F0030FA6D14E4B27
:103470001B6813F0040F03D0E368002B00F0A28256
:10348000494A136823F01903E1680B431360FEF700
:1034900033FC0546444B1B6813F0040F06D1FEF7BE
:1034A0002BFC401B0228F5D9032090E2FEF73EFCDE
:1034B00041F20303984212D82269402A07D03A49C0
:1034C0004B6823F47C3343EA02334B600FE0364A07
:1034D000536823F47C3343F40033536007E0324AEB
:1034E000536823F0FE43216943EA01635360236874
:1034F00013F0100F00F088802B4A136903F0380393
:10350000926A082B56D0182B50D0E369002B00F09C
:10351000B880254A136843F080031360FEF7ECFB84
:103520000546214B1B6813F4807F40F08880FEF72E
:10353000E3FB401B0228F4D9032048E2FEF7F6FB28
:1035400041F20303984212D82269402A07D0164953
:103550004B6823F47C3343EA02334B60C7E7124ADB
:10356000536823F47C3343F400335360BFE70E4ABF
:10357000536823F0FE43216943EA01635360B6E7D1
:10358000094A136823F001031360FEF7B5FB0546F3
:10359000054B1B6813F0040FA9D0FEF7ADFB401BD1
:1035A0000228F5D9032012E20044025802F0030277
:1035B000012AAAD1A14B1B6813F4807F03D0E369D1
:1035C000802B40F00182FEF7B1FB41F203039842E9
:1035D00012D8226A202A07D098494B6823F0F84372
:1035E00043EA82634B600FE0944A536823F0F84348
:1035F00043F08043536007E0904AD36823F07C5344
:10360000216A43EA0163D360236813F0080F60D096
:103610006369002B49D0894A536F43F00103536714
:10362000FEF76AFB0546854B5B6F13F0020F50D126
:10363000FEF762FB401B0228F5D90320C7E1FEF725
:1036400075FB41F20303984212D8226A202A07D060
:103650007A494B6823F0F84343EA82634B60D3E72F
:10366000764A536823F0F84343F080435360CBE736
:10367000724AD36823F07C53216A43EA0163D36022
:10368000C2E76E4A136823F080031360FEF734FB31
:1036900005466A4B1B6813F4807FB5D0FEF72CFB00
:1036A000401B0228F5D9032091E1644A536F23F0AF
:1036B00001035367FEF720FB0546604B5B6F13F079
:1036C000020F06D0FEF718FB401B0228F5D9032095
:1036D0007DE1236813F0200F29D0A3699BB1574ADD
:1036E000136843F480531360FEF706FB0546534B03
:1036F0001B6813F4005F1AD1FEF7FEFA401B022884
:10370000F5D9032063E14D4A136823F48053136015
:10371000FEF7F2FA0546494B1B6813F4005F06D02A
:10372000FEF7EAFA401B0228F5D903204FE123688F
:1037300013F0040F21D1636A002B00F047813F4A48
:10374000126902F03802182A00F0EE80022B79D0BC
:103750003A4A136823F080731360FEF7CDFA0446EB
:10376000364B1B6813F0007F00F0DC80FEF7C4FAD4
:10377000001B0228F4D9032029E1314A136843F4DD
:1037800080731360FEF7B8FA05462D4B1B6813F4DF
:10379000807F06D1FEF7B0FA401B6428F5D90320DC
:1037A00015E1A368012B0AD00BBB244B1A6F22F042
:1037B00001021A671A6F22F004021A6704E01F4A16
:1037C000136F43F001031367A36833B3FEF794FA52
:1037D00005461A4B1B6F13F0020FACD1FEF78CFAA3
:1037E000401B41F288339842F3D90320EFE0052BC8
:1037F00009D0124B1A6F22F001021A671A6F22F0D9
:1038000004021A67E0E70D4B1A6F42F004021A67D0
:103810001A6F42F001021A67D6E7FEF76DFA054605
:10382000064B1B6F13F0020F85D0FEF765FA401BA5
:1038300041F288339842F3D90320C8E0004402588B
:1038400000480258694A136823F080731360FEF73A
:1038500053FA0546654B1B6813F0007F06D0FEF750
:103860004BFA401B0228F5D90320B0E05F4B996A60
:103870005F4A0A40A16AE06A41EA00110A439A627B
:10388000226B013AC2F30802616B0139490289B225
:103890000A43A16B0139090401F4FE010A43E16BFB
:1038A0000139090601F0FE410A431A63DA6A22F07F
:1038B0000102DA62596B4F4A0A40A16C42EAC10226
:1038C0005A63DA6A22F00C02216C0A43DA62DA6A7D
:1038D00022F00202616C0A43DA62DA6A42F4803250
:1038E000DA62DA6A42F40032DA62DA6A42F4802298
:1038F000DA62DA6A42F00102DA621A6842F0807231
:103900001A60FEF7F9F90446384B1B6813F0007F84
:1039100006D1FEF7F1F9001B0228F5D9032056E085
:10392000002054E0002052E0304A916A106B012BD5
:103930004ED001F00303A26A93424BD1C1F30511AB
:10394000E36A994248D1C0F30802236B013B9A42D3
:1039500044D1C0F34622636B013B9A4240D1C0F38D
:103960000642A36B013B9A423CD1C0F30660E36B75
:10397000013B984238D11D4B5B6BC3F3CC03A26C67
:103980009A4201D1002022E0184AD36A23F00103B1
:10399000D362FEF7B1F90546FEF7AEF9A842FBD0B7
:1039A000124A516B134B0B40A16C43EAC1035363A2
:1039B000D36A43F00103D362002008E0012070477E
:1039C000012004E0012002E0012000E0002038BDD9
:1039D0000120FCE70120FAE70120F8E70120F6E7E3
:1039E0000120F4E70120F2E70120F0E7004402584B
:1039F0000CFCFFFF0700FFFF744B1B6903F038034B
:103A0000102B00F0DE80182B10D00BB170487047DF
:103A10006E4B1B6813F0200F00F0D5806B4B1868BD
:103A2000C0F3C1006B4B23FA00F0704710B4674A33
:103A3000916A01F00301946AC4F30510D36A03F09C
:103A4000010C536BC3F3CC030CFB03F307EE903A6A
:103A5000F8EE677A14F47C7F00F09380012965D03A
:103A6000022900F09180E1B107EE100AF8EE476AF2
:103A70009FED596A86EE267A544B1B6BC3F30803FD
:103A800006EE903AF8EE666A9FED546A67EE867A23
:103A900076EEA77AF7EE006A77EEA67A27EE277A17
:103AA00060E0136813F0200F23D011461268C2F3B0
:103AB000C102484BD34007EE103AF8EE476A07EED2
:103AC000100AB8EE476A86EE867A0B6BC3F30803DA
:103AD00006EE903AF8EE666A9FED406A67EE867AE7
:103AE00076EEA77AF7EE006A77EEA67A27EE277AC7
:103AF00038E007EE100AF8EE476A9FED396A86EE65
:103B0000267A324B1B6BC3F3080306EE903AF8EEAD
:103B1000666A9FED326A67EE867A76EEA77AF7EEEE
:103B2000006A77EEA67A27EE277A1BE007EE100AE6
:103B3000F8EE476A9FED286A86EE267A234B1B6BC8
:103B4000C3F3080306EE903AF8EE666A9FED236A27
:103B500067EE867A76EEA77AF7EE006A77EEA67AB7
:103B600027EE277A194B1B6BC3F34623013307EE6D
:103B7000903AF8EE677AC7EE276AFCEEE67A17EE1F
:103B8000900A5DF8044B704707EE100AF8EE476A9A
:103B90009FED146A86EE267A0C4B1B6BC3F3080369
:103BA00006EE903AF8EE666A9FED0C6A67EE867A4A
:103BB00076EEA77AF7EE006A77EEA67A27EE277AF6
:103BC000D0E7094870470348704700BF00440258D7
:103BD00000093D000090D0030024744A0000003921
:103BE0000024744C20BCBE4B40787D01002800F0BE
:103BF000328170B50D4604469B4B1B6803F00F03E2
:103C00008B420BD2984A136823F00F030B431360C7
:103C1000136803F00F038B4240F01F81236813F0F9
:103C2000040F0CD02269914B9B6903F070039A42F8
:103C300005D98E498B6923F070031A438A61236882
:103C400013F0080F0CD06269884BDB6903F0700336
:103C50009A4205D98549CB6923F070031A43CA619A
:103C6000236813F0100F0CD0A269804BDB6903F4BA
:103C7000E0639A4205D97D49CB6923F4E0631A4396
:103C8000CA61236813F0200F0CD0E269774B1B6ADE
:103C900003F070039A4205D974490B6A23F070034C
:103CA0001A430A62236813F0020F0CD0E2686F4BCC
:103CB0009B6903F00F039A4205D96C498B6923F085
:103CC0000F031A438A61236813F0010F41D0674A3A
:103CD000936923F47063A1680B4393616368022BBB
:103CE0000AD0032B27D0012B2CD0604A126812F087
:103CF000040F06D10120ADE0126812F4003F00F07D
:103D0000AE805A490A6922F0070213430B61FDF79E
:103D1000F3FF0646554B1B6903F038036268B3EBAB
:103D2000C20F16D0FDF7E8FF801B41F2883398429E
:103D3000F0D903208EE04D4A126812F0007FE0D1E6
:103D4000012087E0494A126812F4807FD9D101200E
:103D500080E0236813F0020F0CD0E268434B9B69AC
:103D600003F00F039A4205D240498B6923F00F03F9
:103D70001A438A613C4B1B6803F00F03AB420AD91C
:103D8000394A136823F00F032B431360136803F0C1
:103D90000F03AB4265D1236813F0040F0CD02269E6
:103DA000324B9B6903F070039A4205D22F498B690D
:103DB00023F070031A438A61236813F0080F0CD0B4
:103DC00062692A4BDB6903F070039A4205D22749E6
:103DD000CB6923F070031A43CA61236813F0100FF4
:103DE0000CD0A269214BDB6903F4E0639A4205D24F
:103DF0001E49CB6923F4E0631A43CA61236813F0B8
:103E0000200F0CD0E269194B1B6A03F070039A4231
:103E100005D216490B6A23F070031A430A62FFF7B2
:103E2000EBFD12498B69C3F30323114AD35C03F002
:103E30001F03D8408B6903F00F03D35C03F01F030B
:103E400020FA03F30B4A13600B4B18600B4B1868F6
:103E5000FDF7F0FE70BD012070470120FAE7012058
:103E6000F8E70120F6E700BF0020005200440258A6
:103E7000485D010804000024000000240C00002418
:103E800008B5FFF7B9FD0B4A9369C3F303230A4949
:103E9000CB5C03F01F0320FA03F3926902F00F02D8
:103EA000885C00F01F0023FA00F0044A1060044A06
:103EB000136008BD00440258485D01080400002456
:103EC0000000002408B5FFF7DBFF054BDB69C3F3F7
:103ED0000213044AD35C03F01F03D84008BD00BF9F
:103EE00000440258485D010808B5FFF7C9FF054BBB
:103EF000DB69C3F30223044AD35C03F01F03D840F9
:103F000008BD00BF00440258485D0108404B9B6A51
:103F100003F00303032B79D070B505460E463C4AE7
:103F2000136823F080631360FDF7E6FE0446384B08
:103F30001B6813F0006F06D0FDF7DEFE031B022B9B
:103F4000F5D9032070BD324B9A6A22F47C3229687D
:103F500042EA01329A626A68013AC2F30802A96829
:103F60000139490289B20A43E9680139090401F4B7
:103F7000FE010A4329690139090601F0FE410A439D
:103F80009A63DA6A22F0C00269690A43DA62DA6A7D
:103F900022F02002A9690A43DA62DA6A22F01002EA
:103FA000DA62D96B1B4A0A40E96942EAC102DA6364
:103FB000DA6A42F01002DA62C6B91A46DB6A43F4E2
:103FC0000023D362124A136843F080631360FDF745
:103FD00093FE04460E4B1B6813F0006F14D1FDF7DF
:103FE0008BFE001B0228F5D90320ABE7012E05D07C
:103FF000074AD36A43F40013D362E3E7044AD36A5F
:1040000043F48013D362DDE700209BE70120704773
:10401000004402580700FFFF404B9B6A03F0030374
:10402000032B79D070B505460E463C4A136823F041
:1040300080531360FDF760FE0446384B1B6813F095
:10404000005F06D0FDF758FE031B022BF5D90320B5
:1040500070BD324B9A6A22F07C72296842EA0152A2
:104060009A626A68013AC2F30802A96801394902F2
:1040700089B20A43E9680139090401F4FE010A43DF
:1040800029690139090601F0FE410A431A64DA6A16
:1040900022F4406269690A43DA62DA6A22F4007241
:1040A000A9690A43DA62DA6A22F48072DA62596C28
:1040B0001B4A0A40E96942EAC1025A64DA6A42F4D8
:1040C0008072DA62C6B91A46DB6A43F48003D362AF
:1040D000124A136843F080531360FDF70DFE044647
:1040E0000E4B1B6813F0005F14D1FDF705FE001B9B
:1040F0000228F5D90320ABE7012E05D0074AD36A81
:1041000043F08073D362E3E7044AD36A43F40003C5
:10411000D362DDE700209BE701207047004402588E
:104120000700FFFFF8B50446036813F0006F30D0B6
:10413000836EB3F5001F26D00ED8EBB1B3F5801F08
:1041400007D102210830FFF7E1FE054645B12E46B2
:1041500021E0012635461EE0B3F5401F09D10025B8
:10416000984A136D23F44013A16E0B431365002688
:1041700011E0012635460EE0924AD36A43F400333B
:10418000D3620025ECE702212830FFF745FF054602
:10419000DCE700263546236813F4807F14D0A36D36
:1041A000042B32D8DFE803F003232A080800854AED
:1041B000D36A43F40033D36255BB824A136D23F0B4
:1041C0000703A16D0B431365236813F4007F31D0FF
:1041D000E36D802B4CD020D8002B43D0402B19D13D
:1041E000002104F10800FFF791FE05461AE00021C6
:1041F00004F10800FFF78AFE0546DDE7002104F11F
:104200002800FFF709FF0546D6E701263546DBE71C
:104210002E46D9E7012635460CE0C02B02D0B3F577
:10422000807F1CD15DBB674A136D23F4E073E16DA1
:104230000B431365236813F4806F46D0D4F8A8307D
:10424000B3F5800F39D01FD88BB3B3F5001F18D149
:10425000002104F10800FFF759FE05461AE0012687
:104260003546E7E7574AD36A43F40033D362D9E7C8
:10427000002104F12800FFF7CFFE0546D2E72E46C5
:10428000D8E70126354620E0B3F5C00F02D0B3F5DC
:10429000000F09D1C5B94B4A936D23F46003D4F8DC
:1042A000A8100B43936510E0012635460DE0454A02
:1042B000D36A43F40033D362ECE7002104F1280011
:1042C000FFF7AAFE0546E5E72E46236813F4006FC4
:1042D00024D0D4F8AC30B3F1007F42D00ED8002BFC
:1042E00039D0B3F1807F06D1002104F10800FFF737
:1042F0000DFE054608E0012635460FE0B3F1407F8C
:1043000002D0B3F1806F23D1002D31D12D4A936DAE
:1043100023F0E063D4F8AC100B439365236813F0EB
:10432000007F2ED0E36C202B40D026D833B1102B49
:1043300020D1244AD36A43F40033D362002D3CD108
:10434000204AD36C23F03003E16C0B43D36418E0B4
:1043500001263546E2E71B4AD36A43F40033D362B1
:10436000D2E7002104F12800FFF756FE0546CBE70F
:104370002E46D3E70126354603E0302BDED001265A
:104380003546236813F4805F2DD0236EB3F5005FAC
:104390004FD019D8002B46D0B3F5805F0FD1002144
:1043A00004F10800FFF7B2FD054613E0022104F115
:1043B0000800FFF7ABFD0546C0E72E46E1E7012602
:1043C000354610E000440258B3F5405F02D0B3F523
:1043D000804F25D1002D33D1774A136D23F4E0436C
:1043E000216E0B431365236813F4005F38D0636EAE
:1043F000B3F5003F53D028D843B1B3F5803F21D166
:10440000012104F10800FFF781FD0546002D4DD183
:10441000694A136D23F4E023616E0B4313651FE0BB
:1044200001263546DFE7644AD36A43F40033D3629A
:10443000D0E7002104F12800FFF7EEFD0546C9E7AB
:104440002E46D0E7012635460AE0B3F5802FDDD0B1
:10445000B3F5A02FDAD0B3F5403FD7D001263546CB
:10446000236813F4804F31D0D4F8B030B3F1005F3B
:1044700045D020D843B1B3F1805F19D1012104F1B7
:104480000800FFF743FD0546002D3FD14A4A936DD2
:1044900023F0E043D4F8B0100B43936516E00121FC
:1044A00004F12800FFF7B8FD0546AFE72E46D7E731
:1044B000012635460AE0B3F1804FE5D0B3F1A04FB5
:1044C000E2D0B3F1405FDFD001263546236813F414
:1044D000004F09D0236FB3F1805F19D0B3F1005FB3
:1044E00024D0D3B101263546236813F0807F33D022
:1044F000A36C032B5BD8DFE803F0272253270121AD
:1045000004F12800FFF788FD0546BDE72E46DDE7EC
:10451000294AD36A43F40033D36275B9264A136D2E
:1045200023F04053216F0B431365DDE7012104F1B4
:104530000800FFF7EBFC0546EFE72E46D4E71E4ADE
:10454000D36A43F40033D362A5BB1B4AD36C23F078
:104550000303A16C0B43D364236813F4800F2DD1A4
:10456000236813F0010F00F0A580E36F282B00F201
:104570009F80DFE803F08D9D9D9D9D9D9D9D879D66
:104580009D9D9D9D9D9D969D9D9D9D9D9D9D8D9D72
:104590009D9D9D9D9D9D8D9D9D9D9D9D9D9D8D0008
:1045A000022104F10800FFF7B1FC0546CCE7012623
:1045B0003546D1E72E46CFE700440258914A1368AA
:1045C00043F480731360FDF797FB07468D4B1B6820
:1045D00013F4807F05D1FDF78FFBC01B6428F5D94C
:1045E0000325002D4AD1884B1B6FD4F8B4205340CB
:1045F00013F4407F0CD0844B1A6F22F44072196F71
:1046000041F480311967196F21F4803119671A67F5
:10461000D4F8B430B3F5807F15D08DBBD4F8B43066
:1046200003F44072B2F5407F1ED0774A136923F439
:104630007C53136174490B6FD4F8B420C2F30B029E
:1046400013430B678CE7FDF757FB07466E4B1B6F59
:1046500013F0020FE1D1FDF74FFBC01B41F288338D
:104660009842F3D90325D8E76748026922F47C52BF
:10467000664901EA131313430361DBE72E466FE734
:104680002E466DE7012104F10800FFF73FFC0546C7
:10469000E5B95D4A536D23F03803E16F0B43536571
:1046A00008E0012104F12800FFF7B6FC0546EFE71A
:1046B00001263546236813F0020F17D0A36F052B90
:1046C00028D8DFE803F00B05200B0B0B2E46F1E793
:1046D000012104F10800FFF719FC0546EDB94A4A2B
:1046E000536D23F00703A16F0B435365236813F049
:1046F000040F23D0D4F89430052B45D8DFE803F01D
:10470000150F3D151515012104F12800FFF784FC54
:104710000546E3E701263546E8E72E46E6E70121B0
:1047200004F10800FFF7F2FB054685BB364A936D9E
:1047300023F00703D4F894100B439365236813F018
:10474000200F34D0D4F89030B3F1005F4ED023D88E
:1047500043B1B3F1805F1CD1002104F10800FFF7E1
:10476000D5FB0546002D48D1274A536D23F0E04381
:10477000D4F890100B43536519E0012104F128008F
:10478000FFF74AFC0546D0E701263546D6E72E4618
:10479000D4E7012635460AE0B3F1804FE2D0B3F109
:1047A000A04FDFD0B3F1405FDCD00126354623684F
:1047B00013F0400F37D0D4F89C30B3F5006F53D0CE
:1047C00026D843B1B3F5806F19D1002104F1080058
:1047D000FFF79CFB0546002D4DD10B4A936D23F44A
:1047E000E053D4F89C100B4393651CE0022104F1C4
:1047F0002800FFF711FC0546B4E72E46D7E701264F
:10480000354610E00048025800440258CFFFFF0030
:10481000B3F5805FDFD0B3F5A05FDCD0B3F5406FB8
:10482000D9D001263546236813F0800F33D0D4F851
:10483000A030B3F5804F00F0A38021D843B1B3F589
:10484000005F1AD1002104F10800FFF75FFB054665
:10485000002D40F09C80814A936D23F46043D4F88E
:10486000A0100B43936516E0022104F12800FFF726
:10487000D3FB0546AFE72E46D5E7012635460AE0CD
:10488000B3F5004FE4D0B3F5204FE1D0B3F5C04FFE
:10489000DED001263546236813F0080F0CD0D4F87B
:1048A0008430B3F5805F74D06C4A536D23F4405369
:1048B000D4F884100B435365236813F0100F0CD009
:1048C000D4F89830B3F5807F6CD0644A936D23F4AC
:1048D0004073D4F898100B439365236813F4002FAA
:1048E0000BD0D4F8A430B3F5803F74D0B3F5003FBB
:1048F00067D0002B5FD001263546236813F4802F44
:104900000CD0D4F88830B3F5001F7CD0B3F5401F2D
:104910006FD0B3F5801F67D001263546236813F4A6
:10492000803F08D0236D002B76D0B3F5803F00F098
:10493000818001263546236813F0005F40F08380B4
:10494000236813F4003F00F08E80D4F88030B3F574
:10495000807F00F0EC8040F28380B3F5007F03D0CD
:10496000B3F5407F40F0E180002D40F0E6803B4A07
:10497000536D23F44073D4F880100B43536572E0F9
:10498000022104F12800FFF747FB054660E72E46A9
:1049900081E7022104F12800FFF73EFB002883D0C5
:1049A000012681E7022104F12800FFF735FB0028EA
:1049B0008BD0012689E7002104F10800FFF7A6FA51
:1049C00005467DB9254A936D23F44033D4F8A410ED
:1049D0000B43936591E7022104F12800FFF71CFBCC
:1049E0000546EEE72E4688E71C4AD36A43F40033B7
:1049F000D3627DB9194A536D23F44013D4F888105B
:104A00000B4353658AE7012104F12800FFF704FBFB
:104A10000546EEE72E4681E7104AD36A43F4003399
:104A2000D36275B90D4AD36C23F48033216D0B43E7
:104A3000D36480E7022104F10800FFF767FA054616
:104A4000EFE72E4677E7022104F12800FFF7E4FAAA
:104A500000283FF475AF012672E700BF00440258FA
:104A6000002B81D00126236813F4801F06D04F4A03
:104A7000136D23F00043616F0B431365236813F03C
:104A8000805F07D0494A136923F48043D4F8B810F3
:104A90000B431361236813F4001F06D0434A136DC0
:104AA00023F08073E16E0B431365236813F0804F8E
:104AB00009D03E4B1A6922F400421A611A69D4F8EF
:104AC000BC100A431A612368002B06DA374AD36CFC
:104AD00023F04053616D0B43D364236813F4000F3C
:104AE00007D0324A536D23F44003D4F88C100B43A3
:104AF0005365636813F0010F21D1636813F0020F4F
:104B000026D1636813F0040F2BD1636813F0080FEC
:104B100030D1636813F0100F35D1636813F0200FA4
:104B20003AD106B101263046F8BD01269BE71F4A5F
:104B3000D36A43F40033D36216E72E4693E700218D
:104B400004F10800FFF7E2F90028D6D00646D4E7C2
:104B5000012104F10800FFF7D9F90028D1D0064659
:104B6000CFE7022104F10800FFF7D0F90028CCD0EC
:104B70000646CAE7002104F12800FFF74DFA002895
:104B8000C7D00646C5E7012104F12800FFF744FA23
:104B90000028C2D00646C0E7022104F12800FFF732
:104BA0003BFA0028BDD00646BBE700BF00440258D0
:104BB00008B5FFF765F9054B1B6AC3F30213044AF6
:104BC000D35C03F01F03D84008BD00BF0044025867
:104BD000485D010810B5774A916A946AC4F3053EAE
:104BE000D36AC3F3001CD36BC3F3CC030CFB03F3F6
:104BF00014F47C3F00F0D88001F0030107EE903AF6
:104C0000F8EE677A012965D0022900F0B080E1B1A1
:104C100007EE10EAB8EE477A9FED676AC6EE076ABC
:104C2000644B9B6BC3F3080307EE103AB8EE477A68
:104C30009FED626A67EE867A77EE277AB7EE007AA2
:104C400077EE877A66EEA76A60E0136813F0200FAC
:104C500023D011461268C2F3C102594BD34007EE6C
:104C6000103AB8EE477A06EE90EAB8EE666AC7EEFA
:104C7000066A8B6BC3F3080307EE103AB8EE477A67
:104C80009FED4E6A67EE867A77EE277AB7EE007A66
:104C900077EE877A66EEA76A38E007EE10EAB8EE9C
:104CA000477A9FED486AC6EE076A424B9B6BC3F397
:104CB000080307EE103AB8EE477A9FED406A67EEB8
:104CC000867A77EE277AB7EE007A77EE877A66EE05
:104CD000A76A1BE007EE10EAB8EE477A9FED366A46
:104CE000C6EE076A334B9B6BC3F3080307EE103A1B
:104CF000B8EE477A9FED316A67EE867A77EE277ACB
:104D0000B7EE007A77EE877A66EEA76A294A936B48
:104D1000C3F3462307EE103AB8EE477AB7EE006ABF
:104D200037EE067AC6EE877AFCEEE77AC0ED007AB7
:104D3000936BC3F3064307EE103AB8EE477A37EEAB
:104D4000067AC6EE877AFCEEE77AC0ED017A936BBD
:104D5000C3F3066307EE903AF8EE677A77EE867A49
:104D600086EEA77ABCEEC77A80ED027A10BD07EE18
:104D700010EAB8EE477A9FED146AC6EE076A0D4B4B
:104D80009B6BC3F3080307EE103AB8EE477A9FED2A
:104D90000B6A67EE867A77EE277AB7EE007A77EEBF
:104DA000877A66EEA76AB1E70023036043608360F9
:104DB000DCE700BF004402580024744A00000039B8
:104DC0000090D0030024744C20BCBE4B10B5774A31
:104DD000916A946AC4F3055ED36AC3F3002C536CE2
:104DE000C3F3CC030CFB03F314F07C7F00F0D880FA
:104DF00001F0030107EE903AF8EE677A012965D0D9
:104E0000022900F0B080E1B107EE10EAB8EE477A6F
:104E10009FED676AC6EE076A644B1B6CC3F3080319
:104E200007EE103AB8EE477A9FED626A67EE867A2F
:104E300077EE277AB7EE007A77EE877A66EEA76A82
:104E400060E0136813F0200F23D011461268C2F3FC
:104E5000C102594BD34007EE103AB8EE477A06EE3E
:104E600090EAB8EE666AC7EE066A0B6CC3F30803F5
:104E700007EE103AB8EE477A9FED4E6A67EE867AF3
:104E800077EE277AB7EE007A77EE877A66EEA76A32
:104E900038E007EE10EAB8EE477A9FED486AC6EEB2
:104EA000076A424B1B6CC3F3080307EE103AB8EED7
:104EB000477A9FED406A67EE867A77EE277AB7EEFB
:104EC000007A77EE877A66EEA76A1BE007EE10EAB3
:104ED000B8EE477A9FED366AC6EE076A334B1B6C15
:104EE000C3F3080307EE103AB8EE477A9FED316A34
:104EF00067EE867A77EE277AB7EE007A77EE877AD2
:104F000066EEA76A294A136CC3F3462307EE103AEC
:104F1000B8EE477AB7EE006A37EE067AC6EE877AC1
:104F2000FCEEE77AC0ED007A136CC3F3064307EE9C
:104F3000103AB8EE477A37EE067AC6EE877AFCEE7C
:104F4000E77AC0ED017A136CC3F3066307EE903A7B
:104F5000F8EE677A77EE867A86EEA77ABCEEC77AA5
:104F600080ED027A10BD07EE10EAB8EE477A9FEDA9
:104F7000146AC6EE076A0D4B1B6CC3F3080307EEF9
:104F8000103AB8EE477A9FED0B6A67EE867A77EEB5
:104F9000277AB7EE007A77EE877A66EEA76AB1E7EE
:104FA0000023036043608360DCE700BF00440258D5
:104FB0000024744A000000390090D0030024744C8F
:104FC00020BCBE4B10B5774A916A946AC4F3051EA3
:104FD000D36A03F0010C536BC3F3CC030CFB03F354
:104FE00014F47C7F00F0D88001F0030107EE903AC2
:104FF000F8EE677A012965D0022900F0B080E1B1AE
:1050000007EE10EAB8EE477A9FED676AC6EE076AC8
:10501000644B1B6BC3F3080307EE103AB8EE477AF4
:105020009FED626A67EE867A77EE277AB7EE007AAE
:1050300077EE877A66EEA76A60E0136813F0200FB8
:1050400023D011461268C2F3C102594BD34007EE78
:10505000103AB8EE477A06EE90EAB8EE666AC7EE06
:10506000066A0B6BC3F3080307EE103AB8EE477AF3
:105070009FED4E6A67EE867A77EE277AB7EE007A72
:1050800077EE877A66EEA76A38E007EE10EAB8EEA8
:10509000477A9FED456AC6EE076A424B1B6BC3F326
:1050A000080307EE103AB8EE477A9FED406A67EEC4
:1050B000867A77EE277AB7EE007A77EE877A66EE11
:1050C000A76A1BE007EE10EAB8EE477A9FED396A4F
:1050D000C6EE076A334B1B6BC3F3080307EE103AA7
:1050E000B8EE477A9FED316A67EE867A77EE277AD7
:1050F000B7EE007A77EE877A66EEA76A294A136BD5
:10510000C3F3462307EE103AB8EE477AB7EE006ACB
:1051100037EE067AC6EE877AFCEEE77AC0ED007AC3
:10512000136BC3F3064307EE103AB8EE477A37EE37
:10513000067AC6EE877AFCEEE77AC0ED017A136B49
:10514000C3F3066307EE903AF8EE677A77EE867A55
:1051500086EEA77ABCEEC77A80ED027A10BD07EE24
:1051600010EAB8EE477A9FED146AC6EE076A0D4B57
:105170001B6BC3F3080307EE103AB8EE477A9FEDB6
:105180000B6A67EE867A77EE277AB7EE007A77EECB
:10519000877A66EEA76AB1E7002303604360836005
:1051A000DCE700BF004402580024744C00000039C2
:1051B0000090D0030024744A20BCBE4B00B58BB0D5
:1051C000A0F580730B432ED0A0F500730B437ED067
:1051D000A0F580630B4300F0D480A0F500630B437F
:1051E00000F02C81A0F580530B4300F08B81A0F5DB
:1051F00000530B4300F0E381A0F500230B4300F0C4
:105200002C82A0F580330B4300F06F82A0F5804321
:105210000B4300F09082A0F5004050EA010300F03B
:10522000D382002001E3954B1B6D03F00703042B91
:1052300000F2F282DFE803F005101B03260090481D
:10524000F3E28E4B186810F0007000F0EE8207A8B1
:10525000FFF7B8FE0898E8E2884B186810F0006085
:1052600000F0E38204A8FFF7B5FC0498DDE2834B6D
:10527000186810F0005000F0D88201A8FFF7A6FDD2
:105280000198D2E27D4AD36C03F04053126812F0C9
:10529000040F07D033B9794B1B68C3F3C1037948B6
:1052A000D840C2E2754A126812F4807F03D0B3F18D
:1052B000805F00F0B382714A126812F4003F00F080
:1052C000AF82B3F1005F00F0AD820020ADE26B4B26
:1052D0001B6D03F4E073802B33D015D9C02B00F085
:1052E000A382B3F5807F1FD1644AD36C03F040538F
:1052F000126812F0040F2FD073BB604B1B68C3F30E
:10530000C1036048D84090E283B1402B0AD15B4B87
:10531000186810F0006000F0888204A8FFF75AFCBB
:10532000049882E2002080E200207EE2534B18685D
:1053300010F0007000F0798207A8FFF743FE08988C
:1053400073E24E4B186810F0005000F06E8201A816
:10535000FFF73CFD019868E2484A126812F4807F2A
:1053600003D0B3F1805F00F06382444A126812F404
:10537000003F00F05F82B3F1005F00F05D8200202B
:1053800053E23E4B9B6D03F46003B3F5800F35D0C1
:1053900016D9B3F5C00F00F05182B3F5000F20D13C
:1053A000364AD36C03F04053126812F0040F30D029
:1053B0007BBB324B1B68C3F3C1033248D84034E295
:1053C0008BB1B3F5001F0AD12C4B186810F00060A8
:1053D00000F02B8204A8FFF7FDFB049825E20020D3
:1053E00023E2002021E2254B186810F0007000F045
:1053F0001C8207A8FFF7E6FD089816E21F4B186805
:1054000010F0005000F0118201A8FFF7DFFC0198B6
:105410000BE21A4A126812F4807F03D0B3F1805F66
:1054200000F00E82154A126812F4003F00F00A8262
:10543000B3F1005F00F008820020F6E10F4B9B6D96
:1054400003F0E063B3F1007F3CD01DD9B3F1407F9E
:1054500000F0FC81B3F1806F27D1084AD36C03F0D0
:105460004053126812F0040F37D0002B35D1034B94
:105470001B68C3F3C1030348D840D6E10044025877
:105480000080BB000090D0038BB1B3F1807F0AD1C4
:105490009A4B186810F0006000F0C78104A8FFF76D
:1054A00099FB0498C1E10020BFE10020BDE1934BCE
:1054B000186810F0007000F0B88107A8FFF782FDAF
:1054C0000898B2E18D4B186810F0005000F0AD81E3
:1054D00001A8FFF77BFC0198A7E1884A126812F443
:1054E000807F03D0B3F1805F00F0B281834A1268FD
:1054F00012F4003F00F0AE81B3F1005F00F0AC8128
:10550000002092E17D4B1B6D03F4E043B3F5005F97
:1055100035D016D9B3F5405F00F0A081B3F5804FC8
:1055200020D1764AD36C03F04053126812F0040F76
:1055300030D07BBB714B1B68C3F3C1037048D840AC
:1055400073E18BB1B3F5805F0AD16C4B186810F032
:10555000006000F06A8104A8FFF73CFB049864E156
:10556000002062E1002060E1644B186810F00070D8
:1055700000F05B8107A8FFF725FD089855E15F4B18
:10558000186810F0005000F0508101A8FFF71EFCD1
:1055900001984AE1594A126812F4807F03D0B3F1AE
:1055A000805F00F05D81554A126812F4003F00F000
:1055B0005981B3F1005F00F05781002035E14F4B76
:1055C0001B6D03F4E023B3F5403F32D016D8B3F59A
:1055D000803F23D0B3F5003F0AD1484B186810F044
:1055E000005000F0228101A8FFF7F0FB02981CE1B7
:1055F00013B9FEF767FC18E1002016E1B3F5802F20
:1056000023D0B3F5A02F07D13C4B186810F400301D
:1056100000F00B813B4808E1002006E1374B186899
:1056200010F0006000F0018104A8FFF7D3FA05989C
:10563000FBE0324B186810F0040000F0F6801B68A5
:10564000C3F3C1032E48D840EFE02C4B186810F488
:10565000807000F0EA802C48E7E0284B9B6D03F453
:105660004033B3F5803F10D0B3F5003F18D00BB1F5
:105670000020DAE0214B186810F0006000F0D580BF
:1056800004A8FFF7A7FA0498CFE01C4B186810F0A5
:10569000005000F0CA8001A8FFF798FB0398C4E00F
:1056A000164AD36C03F04053126812F0040F07D06F
:1056B00033B9124B1B68C3F3C1031148D840B4E09F
:1056C0000E4A126812F4807F03D0B3F1805F00F0BD
:1056D000CD800A4A126812F4003F00F0C980B3F18D
:1056E000005F00F0C78000209FE0044BDB6C13F4E8
:1056F00080330BD0ABB9002097E000BF00440258C4
:105700000090D00340787D0100093D005A4B186895
:1057100010F0007000F0898007A8FFF753FC08988C
:1057200083E0554B186810F000607ED004A8FFF7A6
:1057300051FA069879E0504B9B6D03F0E043B3F1CA
:10574000405F2FD015D8B3F1805F21D0B3F1005F57
:1057500009D1494B186810F0005066D001A8FFF736
:1057600035FB029861E013B9FFF722FA5DE00020F3
:105770005BE0B3F1804F20D0B3F1A04F06D13E4B98
:10578000186810F4003050D03C484EE000204CE047
:10579000394B186810F0006047D004A8FFF71AFAD8
:1057A000059842E0344B186810F004003DD01B68A7
:1057B000C3F3C1033248D84037E02F4B186810F4C8
:1057C000807032D02F4830E02B4B1B6D03F04053DC
:1057D000B3F1805F0CD0B3F1005F13D00BB10020A8
:1057E00023E0254B186810F400301ED023481CE03D
:1057F000214B186810F0007017D007A8FFF7E2FBE4
:10580000089812E01C4B186810F000600DD004A836
:10581000FFF7E0F9059808E0002006E0194804E0E9
:10582000002002E0154800E017480BB05DF804FBCB
:105830001448FAE70020F8E71048F6E71248F4E7C2
:105840001048F2E70020F0E70C48EEE70E48ECE7DE
:105850000C48EAE70020E8E70848E6E70A48E4E7FA
:105860000848E2E70020E0E70448DEE70548DCE717
:105870000020DAE70148D8E70044025840787D016B
:105880000090D00300093D000080BB0070B582B0DD
:10589000044600230193006801F05CFD054610B149
:1058A000284602B070BD206802F090F8B0F1004FB9
:1058B00007D00123E363E36B012B0BD02E46284670
:1058C00014E00023E363206801F044FD0028F2D0D7
:1058D0000546E5E70021206801F0C3FE0028EDD071
:1058E0004FF08055DCE7019B01330193019A4FF69D
:1058F000FE739A4213D896B90021206801F0B1FED8
:10590000D0B91249206801F0ADFF0646B0B90021B8
:10591000206801F00AFDC30FE5D01E46E3E7019AB7
:105920004FF6FE739A420CD80023A36310F0804315
:105930000AD00123A363B3E70546B1E74FF08055D2
:10594000AEE74FF08075ABE71D46A9E7000010C138
:1059500070B5446A836A1F2B15D870BD306801F09A
:10596000BDFC2070C0F307236370C0F30743A3702E
:10597000000EE07004340135072DEFD97462B36A6C
:10598000203BB362E9E706460025F5E770B582B033
:10599000C469036A1F2B1CD802B070BD2378019321
:1059A000627843EA02230193A27843EA0243019317
:1059B000E27843EA02630193043401A9306801F0FC
:1059C00090FC0135072DE9D9F461336A203B33623D
:1059D000E2E706460025F5E7F0B587B005460E4636
:1059E000FCF78AF907460021286801F09EFC10F0B8
:1059F000007F64D14021286801F070FD034610B19A
:105A00006A6B6A635DE0696C0904286801F029FE2D
:105A1000034610B16A6B6A6353E04FF0FF330093A3
:105A200040230193602302930223039300230493F2
:105A3000012305936946286801F07AFC286801F083
:105A400074FE034680B16A6B6A633AE0286801F02D
:105A500045FC46F8040B0134072CF7D9FCF74CF948
:105A6000C01BB0F1FF3F2FD02B685C6B14F4957412
:105A700004D15B6B13F4004FF0D0EDE75A6B12F0DA
:105A8000080F24D15A6B12F0020F22D15B6B13F076
:105A9000200F20D12868436B13F480530CD001F001
:105AA0001DFC46F8040BFCF727F9C01BB0F1FF3FC3
:105AB000F0D14FF0004304E0084A826301E04FF464
:105AC0000063184607B0F0BD4FF00043F9E7082324
:105AD000F7E70223F5E72023F3E700BF3A0F0018AA
:105AE000F0B589B004460F46FCF706F905460023D9
:105AF000009301930821206801F0F0FC064610B1E4
